:02000002D0002C
:1040000000400D0028750D00000006000D000501A0
:084010000401D80700000000C4
:04401800A46F0D0084
:1040200009480A49884208B505D0094A824202D0A7
:10403000121A02F075FF0748074A0021121A02F00F
:104040007DFF014808BD00BF90E5032094740D007A
:10405000FCE50320FCE50320F0E7032070B5074EE4
:10406000074C01F025F8A41BA4080025A54200D1A7
:1040700070BD56F8043B98470135F7E770740D00A2
:1040800090740D0000F022B808B500F011F9BDE8F9
:10409000084000F0CFBF00F079BB00F07FBB007894
:1040A000B0FA80F0400970470123037070470EB4E6
:1040B00003B503AB012153F8042B019300F00BFE71
:1040C00002B05DF804EB03B07047000010B500F0DB
:1040D00065FF4FF4165100F055FF0021042001F058
:1040E00057F800F0CFF9184B184C186001F07CF825
:1040F00000F066FC204600F019F9204600F078F93F
:10410000204600F0A3F9204600F022F900222046C4
:10411000022100F028F920460D4900F08AF900221A
:104120002046032100F01FF920460A4900F081F9DA
:1041300020460421002200F016F920460649BDE879
:10414000104000F076B900BF08E6032018E603200F
:10415000B86F0D00BB6F0D00C46F0D0000000000B4
:104160002DE9F0472DED028B494C4A4B2268002A7D
:1041700077D11B6823602068474DDFF830A102F03B
:1041800047FB39A3D3E9002302F0E6FC02F06AFE04
:10419000286002F05FFB9FED361B41EC100B01F035
:1041A00057F895ED008A18EE100A57EC106B02F0E4
:1041B00051FB31A3D3E90023804689463046394676
:1041C00002F0A0FB424606460F464B464046494693
:1041D00002F098FB2AA3D3E9002302F093FB0246E6
:1041E0000B463046394602F0D5F9DFED2C7A68EE01
:1041F000277A064617EE900A0F4602F02BFB02467E
:104200000B463046394602F0C7F91FA3D3E9002315
:1042100002F0C2F902F026FECAF8000000F0BEFE6D
:1042200022681F49FFF743FF00F0B8FE04462868E4
:1042300002F010FB02460B4620461A49FFF737FFF3
:1042400000F0ACFE0446DAF8000002F003FB024680
:104250000B4620461449FFF72AFFBDEC028BBDE850
:10426000F0871A6087E700BF00000000804F12410E
:1042700000000000000008409A9999999999F13F2F
:104280006666666666660E40D7A3703D0AD7E33F52
:1042900010E603200CE6032014E60320000002448D
:1042A000CC6F0D00D46F0D00E06F0D0000E6032011
:1042B00038B50021042000F07CFF0B4C0B4B0C4D5B
:1042C000186023681844206000F0DCF82B68C01ADE
:1042D00047F23053984206D9FFF742FF002323608C
:1042E00000F0D0F8286038BD10E6032004E6032073
:1042F00008E603200368C9B29B68184710B5044656
:1043000000F072FF3C2100F065FB00F06DFF8021A2
:10431000FFF7F0FF00F068FF036821469B689847AD
:1043200000F062FFBDE8104000F05BBB08B5AE20B6
:10433000FFF7E4FF052000F051FAAF20FFF7DEFFA2
:10434000052000F04BFABDE80840A620FFF7D6BFD5
:1043500008B5012303702020FFF7D0FFBDE8084017
:104360000220FFF7CBBF10B550391446C8B2FFF793
:10437000C5FFE00000F00800FFF7C0FFC4F34300F2
:104380001030BDE81040FFF7B9BF10B50C4600F083
:104390002BFF3C2100F01EFB00F026FF4021FFF721
:1043A000A9FF00F021FF036821469B68984700F0B1
:1043B0001BFFBDE8104000F014BB0000A1F120037A
:1043C0005F2B88BF202170B501F10051074D2039C6
:1043D000064605EBC105082415F8011B3046013CD3
:1043E000FFF7D3FF14F0FF04F6D170BDF86F0D0096
:1043F00070B50546AE20FFF781FF00260022F1B21E
:104400002846FFF7B0FF102420212846013CFFF783
:10441000D5FF14F0FF04F7D10136082EEED1AF20FE
:10442000FFF76CFF224621462846BDE87040FFF7A3
:104430009ABF70B506460D460024E3B20134E95C2C
:1044400019B13046FFF7BAFFF7E770BDA620FFF7B6
:1044500055BF000008B5024B1B685B6C019308BD9B
:104460004802030008B5024B1B689B6C019308BD12
:104470004802030008B5024B1B685B68019308BD46
:104480001802030008B5024B1B685B69019308BD65
:104490001802030008B5024B1B689B68019308BD16
:1044A0002C02030008B5024B1B68DB6C019308BDAE
:1044B0002C02030008B5024B1B68DB68019308BDA2
:1044C0002802030008B5024B1B689B69019308BDD5
:1044D0002802030008B5024B1B68DB69019308BD85
:1044E0002802030008B5024B1B681B6A019308BD34
:1044F0002802030008B5024B1B685B6A019308BDE4
:104500002802030008B5024B1B689B6A019308BD93
:104510002802030008B5024B1B68DB6A019308BD43
:104520002802030008B5024B1B681B6B019308BDF2
:104530002802030008B5024B1B685B6B019308BDA2
:104540002802030008B5024B1B681B6C019308BDD1
:104550002802030008B5024B1B685B69019308BD84
:104560006402030008B5024B1B689B68019308BDF9
:104570006802030008B5024B1B68DB68019308BDA5
:104580006802030008B5024B1B68DB69019308BD94
:104590003002030008B5024B1B681B6A019308BD7B
:1045A0003002030008B5024B1B681B68019308BD6D
:1045B0003C02030008B5024B1B68DB68019308BD91
:1045C0003C02030008B5024B1B681B69019308BD40
:1045D0003C02030008B5024B1B685B69019308BDF0
:1045E0003C02030008B5024B1B689B69019308BDA0
:1045F0003C02030008B5024B1B68DB69019308BD50
:104600003C02030008B5024B1B681B6A019308BDFE
:104610003C02030008B5024B1B689B6A019308BD6E
:104620003C02030008B5024B1B681B68019308BDE0
:104630004C02030008B5024B1B685B68019308BD80
:104640004C02030008B5024B1B681B69019308BDAF
:104650004C02030008B5024B1B685B69019308BD5F
:104660004C02030008B5024B1B689B69019308BD0F
:104670004C02030008B5024B1B68DB69019308BDBF
:104680004C02030008B5024B1B681B6A019308BD6E
:104690004C02030008B5024B1B685B68019308BD20
:1046A0002002030008B5024B1B685B69019308BD3B
:1046B0002002030008B5034B1B68D3F88830019330
:1046C00008BD00002002030008B5034B1B68D3F8A7
:1046D0009430019308BD00002002030008B5024B8E
:1046E0001B68DB6B019308BD4402030008B5024B55
:1046F0001B685B68019308BD4002030008B5024BCC
:104700001B689B68019308BD4002030008B5024B7B
:104710001B68DB68019308BD4002030008B5024B2B
:104720001B681B69019308BD4002030008B5024BDA
:104730001B685B69019308BD4002030008B5024B8A
:104740001B689B69019308BD4002030008B5024B3A
:104750001B68DB69019308BD4002030008B5024BEA
:104760001B681B6A019308BD4002030008B5024B99
:104770001B681B6B019308BD4002030008B5024B88
:104780001B685B6B019308BD4002030008B5024B38
:104790001B681B68019308BD1C02030008B5024B8F
:1047A0001B685B68019308BD1C02030008B5024B3F
:1047B0001B685B6A019308BD1C02030008B5024B2D
:1047C0001B68DB6B019308BD1C02030008B5024B9C
:1047D0001B685B6C019308BD1C0203000021FFF7FE
:1047E00061BF10B50446006808B1FFF73BFE2046E4
:1047F00010BD000010B5064C002320462360FFF7D3
:1048000029FE2046034A0449BDE8104000F014BDCB
:104810001CE60320FCE50320E3470D00002240686E
:104820001146FFF77BBF002240681146FFF796BF95
:10483000002240681146FFF7A1BF40680022FFF741
:1048400095BF4068002281F00101FFF77FBF002380
:1048500040681A461946FFF771BF002340681A46A0
:104860001946FFF763BF002240681146FFF746BFB5
:10487000406800220221FFF749BF002340681A4622
:10488000FFF734BF084B10B52824224618460021F4
:1048900002F054FB054B04804FF0FF3242600422CB
:1048A0005A60034A1A6010BD28E6032020E6032060
:1048B00000730D0010B58368044613B1032201464E
:1048C0009847204610BD002240681146FFF746BFBA
:1048D000002240681146FFF751BF40680022FFF7F1
:1048E00045BF4068002281F00101FFF72FBF002380
:1048F00040681A461946FFF721BF002340681A4650
:104900001946FFF713BF002240681146FFF706BFA4
:10491000002240681146FFF7F1BE406800220221E4
:10492000FFF7F4BE002340681A46FFF7DFBE000021
:10493000024B03225A60024A1A60704750E6032075
:1049400034730D007047F8B5064615460C468F18AF
:10495000BC4206D0336814F8011B9B683046984768
:10496000F6E72846F8BD007C0022FFF7BBBD007CBF
:104970000021FFF7BFBD007C0021FFF7C3BD007C15
:104980000021FFF7C7BD007C0021FFF7CBBD10B5AC
:104990001421044600F055FC204610BD10B54FF41C
:1049A0007A73044608460021C4E90113034B2360CF
:1049B00020741146FFF7C6FD204610BD68730D0038
:1049C0000023007C1A461946FFF774BD007C0022C4
:1049D000FFF778BDC9B2FFF7F9BF007C0022FFF7EF
:1049E00079BD0121FFF7F9BF704710B518210446C2
:1049F00000F027FC204610BDF0B5037D062B8DB0DE
:104A00000E4600F104074FF0000412D000F1080533
:104A100015F8011D0A22304600F03FF9AF42044468
:104A200019D0002CF4D02E21304600F027F9044490
:104A3000EEE72F236A4639460A208DF80040FFF73B
:104A400089FD684602F0A6FA33680246DB686946CB
:104A500030469847044620460DB0F0BD10B5054BD2
:104A60000446112240F8043B002102F067FA204678
:104A700010BD00BF90730D000346074A10B543F800
:104A8000042B01F1100251F8044B43F8044B9142FE
:104A9000F9D10A781A7010BD90730D0010B59DF809
:104AA000084044EA032343EA024242EA0161042344
:104AB0004160037510BD13B5CB7800938B784A78AD
:104AC0000978FFF7EBFF02B010BD0000014B024A6E
:104AD0001A60704758E603209C730D00002340685D
:104AE0001A46FFF703BE406800220221FFF70EBE00
:104AF000002240681146FFF701BE002240681146BF
:104B0000FFF70CBE002340681A461946FFF70EBE99
:104B1000002340681A461946FFF710BE406800227D
:104B200081F00101FFF712BE40680022FFF71EBEB0
:104B3000002240681146FFF721BE0022406811465E
:104B4000FFF70CBE2DE9F043002495B016460D4644
:104B50000746FFF783FF214618220EA8009402F0B3
:104B6000EDF94023CDE90C3421466B460CAA3046C2
:104B7000FFF700FD0446002846D10246012168687F
:104B8000FFF7CCFD0221804622466868FFF7C6FD8C
:104B9000009E81462146002E36D0002934D173680C
:104BA000022B03D00A2B0BD0F669F4E7B8F1000F03
:104BB00004D0716938460431FFF77DFF4146F3E7C1
:104BC000B9F1000F01D14946EEE77469102201A83E
:104BD00002F0B4F906238DF8143001AD04F1080396
:104BE0001834186859682A4603C20833A342154688
:104BF000F7D101A906A807ADFFF73EFF0FCD3C1D79
:104C00000FC42B682370DEE70098FFF7ABFC384633
:104C100015B0BDE8F0830000024B034A1A60002281
:104C20005A6070475CE60320A8730D00F8B506468D
:104C30000D468F180024BD420CD0336815F8011BB7
:104C40009B6830469847031E01DB1C44F3E7002CA9
:104C500008BF1C462046F8BD13B50446084659B1A6
:104C6000019102F097F923680199DB68024620461A
:104C700002B0BDE81040184702B010BD03689B6841
:104C8000184738B50D210546FFF7F8FF0A210446FD
:104C90002846FFF7F3FF204438BD30B58BB0002322
:104CA0008DF82430012A98BF0A2209AC0D46B1FBC9
:104CB000F2F101FB125303F0FF03092B94BF3033D1
:104CC0003733DBB2AA4204F8013DEFD92146FFF7A2
:104CD000C3FF0BB030BD2DE9F04186B000AF0546F3
:104CE0000E46381D142114463B60FFF75FFD132864
:104CF0000ED8391D2846FFF7AFFF04461EB12846DF
:104D0000FFF7BFFF044420461837BD46BDE8F081D9
:104D100000F1080323F00703E846ADEB030D22463C
:104D2000411C3B686846FFF741FD69462846FFF78E
:104D300093FF0446C546E1E710B50446FFF7BAFD08
:104D4000204610BD0348044A04490023836000F054
:104D500073BA00BF64E60320FCE50320394D0D0063
:104D600010B5044608462170FFF70CFC0023636071
:104D7000204610BD10B50446006818B1FFF70EFDBF
:104D80000023236010BD10B50446FFF7F3FF204653
:104D900010BD000010B5094B094C022200201A601A
:104DA000084B2060A080A071A360FFF773FC204631
:104DB000054A0649BDE8104000F03EBA80E60320EF
:104DC00074E603200000FFFFFCE50320874D0D0083
:104DD000024B1A68024B1A60704700BF90E503202F
:104DE00084E6032070474174704708B5007CFFF7E4
:104DF00011FC20EAE07008BD08B5007CFFF7E2FB7B
:104E000020EAE07008BD08B5007CFFF7EBFB40EA44
:104E1000E07008BD08B5007CFFF7DCFB40EAE070FD
:104E200008BD007CFFF7E6BB37B5457C04462DB1D5
:104E3000207C03B0BDE83040FFF7BCBB007C019193
:104E4000FFF7E8FB00280199F2DC284603B030BDEB
:104E500010B51421044600F0F4F9204610BD0000FE
:104E600010B54FF0000C0446084611464FF47A7214
:104E7000C4E901C2044A22600122207462741A4605
:104E8000FFF790FB204610BDF8730D0013B50E4CD4
:104E90002178BFF35B8F11F0010112D120460191FF
:104EA000FFF7FDF8019960B1084A094B0948FFF77F
:104EB000D7FF2046FFF7F8F8074A0849054800F0F1
:104EC000BBF9044802B010BD88E603208CE603203D
:104ED00010E7032094E70320FCE50320E54D0D00D7
:104EE00041747047704708B50021007CFFF7BAFB9A
:104EF00040EAE07008BD08B50121007CFFF7B2FB75
:104F000040EAE07008BD08B5007CFFF7A3FB20EA8B
:104F1000E07008BD08B5007CFFF794FB20EAE07064
:104F200008BD13B50446007C0191FFF793FB0028F0
:104F3000019901DC607C20B1207CFFF79BFB20EA1B
:104F4000E07002B010BD007CFFF79CBB10B51421CF
:104F5000044600F076F9204610BD000010B54FF46D
:104F60007A73044608460021C4E90113044B236008
:104F70000123207463741146FFF754FB204610BDD3
:104F800028740D00007C0022FFF754BB10B51422DA
:104F90000446002101F0D2FF204610BD10B5104C90
:104FA00088B003A8FFF7F2FF2178BFF35B8F11F001
:104FB000010111D120460191FFF771F8019958B113
:104FC00003AA0848FFF7CAFF2046FFF76DF8064A14
:104FD0000649044800F030F9024808B010BD00BF8F
:104FE000A8E70320ACE70320FCE50320E54E0D0015
:104FF000014B1860704700BF98E5032008B50B4BC4
:1050000043B1FFF7CBFF03681B699847002801DD18
:10501000AFF30080064B43B1FFF738FF03681B690D
:105020009847002801DDAFF3008008BD00000000B4
:105030000000000008B5FFF7E1FFFFF723FA014B7E
:10504000186008BDD4E703200248034A0349121A36
:1050500001F066BF00F4032004F4032090740D00F7
:1050600007B5002300931A466FF07701FFF72CFB7A
:1050700003B05DF804FB000007B543880A2B08D095
:10508000502B0BD1094B1B684BB103B05DF804EBFF
:105090001847FFF7E5FF03B05DF804FB002300931A
:1050A0001A466FF07701FFF70FFBF4E7C4E7032020
:1050B00038B5124C1248134D0021FFF787FB2368C7
:1050C000AB42114B0CBF012200221A7002D0FFF735
:1050D000BBFF2560FFF7CEF9044601F037FF0B4B0D
:1050E00013B12046AFF3008000210848FFF7F6FA1D
:1050F000BDE8384006480021FFF7DCBA00F4032081
:10510000F14F0D001E1C279AC0E70320000000008D
:1051100079500D00232813B502D9002002B010BD2C
:10512000A0F10B03022B1AD8174C2178BFF35B8F29
:1051300011F001010BD120460191FEF7B0FF01995A
:1051400028B11248FFF70CFE2046FEF7ADFF0F4BCB
:105150001878FFF71FFA0028DFD10120DEE70128C9
:1051600009D800F041F80021007CFFF7E3F980F056
:105170000100C0B2D2E709380128EED8FFF786FE59
:10518000007CFFF73FFAF2E7C8E70320CCE70320F3
:10519000232838B504460D460AD8FF2908D0FFF762
:1051A000B9FF28B129462046BDE83840FFF772B95B
:1051B00038BDFFF777B9000038B5002320254380BC
:1051C000142304460380856005610649284600F0E3
:1051D0003AF804496060284600F035F8E06020465F
:1051E00038BD00BF50740D0030B50F4D2978BFF3A6
:1051F0005B8F11F0010487B013D12846FEF74FFFF3
:1052000078B101A8FFF7D8FF01AA21460748FFF7A8
:10521000C5FB2846FEF748FF054A0649034800F04B
:105220000BF8024807B030BDD8E70320DCE70320C5
:10523000FCE5032045490D000B460146184601F0E8
:1052400061BEFEF72ABFFEF726BF00000000000087
:105250002DE9F04F2DED028B8DB057EC106B55EC16
:10526000114B00F0ADF9AE4BB0EE408AF0EE608A23
:1052700093F90090B9F1FF3F37D022462B462046E4
:10528000294601F0D9FD834678BB32463B4630467D
:10529000394601F0D1FD8046002840F093804FF060
:1052A000000A4FF0000B3046394652465B4601F08B
:1052B00091FD18B352465B462046294601F08AFD0F
:1052C0000090002857D0974BCDF828800122CDE9D7
:1052D0000467CDE90645CDE908AB02920393B9F125
:1052E000000F00F089809FED8A8BB0EE480AF0EE47
:1052F000680A0DB0BDEC028BBDE8F08FB0EE480A35
:10530000F0EE680A01F004F88046002800F0828080
:105310004FF000084FF0000951EC180B42464B4685
:1053200001F058FD0028E0D047EC106B00F0F0FFD2
:105330000028DAD045EC104B00F0EAFF0028D4D06A
:10534000774B784A93F90030039204210022022B14
:10535000CDE90467CDE90645CDE9088902910A92B5
:1053600004D002A800F0E0FF00284AD1FFF726FA97
:105370002223036045E045EC104B00F0C9FF0028F4
:10538000B3D052465B462046294601F02DFD002849
:10539000ABD0634B0099634A93F900300A91012125
:1053A000CDE90467CDE90645CDE90212002B6FD1A6
:1053B000CDE908AB02A800F0B7FF00286ED00A9B29
:1053C0002BB320E0002200232046294601F002FDF5
:1053D00000288AD09FED4E8B524BCDF828B0012289
:1053E000B9F1020FCDE90467CDE906458DED088BD3
:1053F000029203933FF479AF02A800F095FF0028D2
:1054000051D00A9B1BB1FFF7D9F90A9B03609DEDB0
:10541000088B6AE747EC106B00F07AFF00283FF436
:1054200077AF45EC104B00F073FF00283FF470AFEE
:1054300053EC182B18EE100A194601F0FDFC384BFE
:10544000002840F0968093F900800A90032302938D
:10545000344B0393CDE90467CDE90645B8F1000F5D
:1054600026D1DFF8D0904FF0604852465B46304678
:105470003946CDE9088901F0B7FC48BB02A800F025
:1054800053FF00289BD1FFF799F92223036096E789
:1054900025490020022BCDE908018BD1FFF78EF9B9
:1054A000212303608BE7FFF789F921230360A8E735
:1054B0009FED197B52465B46304639468DED087BA1
:1054C00001F092FC002837D1B8F1020FDBD0D5E70C
:1054D000164B00222046294601F014FA02460B46DC
:1054E00043EC102BCDE9002300F02AFFDDE9002377
:1054F00051EC100B01F06EFC002836D10C4B084922
:105500004FF06042CDE9082391F90080DCE700BF4D
:10551000000000000000F03F000000000000F07FED
:1055200094E5032054740D000000F0FF0000E03FFC
:10553000FFFFEFC7FFFFEF471C4B00222046294625
:1055400001F0E0F902460B4643EC102BCDE90023B5
:1055500000F0F6FEDDE9002351EC100B01F03AFCFF
:1055600018B9134B0022CDE90823124B93F90080A0
:10557000AAE793F90090104BCDF828800122CDE9DD
:105580000467CDE90645CDE90223B9F1000F3FF4E8
:105590000FAF52465B465046594601F0DDFAB9F16D
:1055A000020FCDE908013FF479AF03E70000E03FC7
:1055B0000000F0FF94E5032054740D00000000008B
:1055C0002DE9F04F57EC116B2DED0A8B27F0004AB7
:1055D0005AEA060289B03DD055EC104B764925F0C9
:1055E0000048884510EE102AA9462CDC11EE103A2E
:1055F000BB463AD08A4526DC6F498A4521D0B9F1AD
:10560000000F3DDB00210391002B55D16A4B9A45D9
:1056100000F0A880694B9A4500F0B680BBF1804F3E
:1056200000F00185664B9B4546D1B9F1000F43DB85
:1056300045EC104B09B0BDEC0A8BBDE8F04F00F013
:1056400099BD002BDBD008F1404808F5801858EAD6
:1056500002030DD19FED547B8DED007B9DED000B82
:1056600009B0BDEC0A8BBDE8F08F0CB9C245C3DDB3
:10567000544809B0BDEC0A8BBDE8F04F00F058BEAD
:1056800051498A4500F38780A1F154718A450FDDA5
:105690004FEA2A51A1F2FF31142940F3CE84C1F11F
:1056A000340123FA01F000FA01F1994200F020855B
:1056B00000210391002BADD045EC104B069200F079
:1056C0001DFE069A8DED000B5ABBB8F1000F04D0F9
:1056D0003A4B29F040429A4223D1BBF1000F07DA3E
:1056E000DDE900233549002001F036FACDE900015B
:1056F000B9F1000FB2DA039B08F1404808F58018B1
:1057000058EA030340F0BE84DDE900231046194641
:1057100000F040FF02460B4601F01EFACDE9000101
:105720009CE7039A4FEAD973013B0693134335D0A4
:10573000264B9A454EDD03F104739A45244B40F302
:10574000ED83984540F36B83BBF1000F40F36B830F
:1057500017A3D3E900231046194601F0D3F8CDE989
:1057600000017BE708F1404303F5801313433FF446
:1057700071AF174B984540F38883BBF1000FC0F21F
:105780005283CDE9006769E7BBF1000FC0F24184A5
:10579000CDE9004562E70221039135E722462B4619
:1057A000B4E700BFAFF30080000000000000F03F4E
:1057B0009C7500883CE4377E0000F07F0000F03FDD
:1057C0000000E03F58740D00FFFF3F430000E04140
:1057D000FFFFEF3FE44B09EA0303002B40F0168480
:1057E000DDE90001E14B002201F08CF8CDE9000178
:1057F000DDF804806FF034004FEA2853DC49C8F329
:105800001302A3F2FF3342F07F5818188A42079020
:1058100048F4401840F3E983D64B9A4240F33E8463
:105820009FEDBB7BB0EE47BAF0EE67BAB0EE47CA69
:10583000F0EE67CA9FEDB87B013054EC173B079040
:10584000A8F580184FF00009DDE900AB44EC183BE7
:105850001A4650462346414600F09CFE53EC182B56
:1058600004460D465046414600F096FE02460B4661
:105870000020C14901F070F945EC1A4B41EC190BBD
:1058800051EC1A0B53EC192B01F03CF8C3464FEACC
:10589000680848F0005808F5002303EB09050A469C
:1058A00000230146CDE900120093DDE900890024C0
:1058B000CDE904122B4622464046494601F022F823
:1058C00002460B4651EC1A0B00F064FE41EC170B3C
:1058D00053EC182B2046294655EC174B00F05AFE86
:1058E00002460B465046594600F054FE42464B468F
:1058F00001F008F802460B462046294600F04AFE11
:1059000053EC192B00F0FEFFDDE904AB04460D4615
:1059100052465B465046594600F0F4FF80A3D3E957
:10592000002345EC1A4B04460D4600F0EBFF7EA326
:10593000D3E9002300F030FE22462B4600F0E2FFC0
:105940007BA3D3E9002300F027FE22462B4600F07C
:10595000D9FF79A3D3E9002300F01EFE22462B468F
:1059600000F0D0FF76A3D3E9002300F015FE224615
:105970002B4600F0C7FF74A3D3E9002300F00CFE10
:1059800022462B4604460D461046194600F0BAFF43
:1059900002460B462046294600F0B4FF4246044624
:1059A0000D464B4650465946CDE904AB00F0F4FD98
:1059B00053EC1A2B00F0A6FF22462B4600F0ECFD1C
:1059C000424604460D464B464046494600F09AFF83
:1059D00045EC194B694B002282468B4600F0DCFDFA
:1059E00053EC192B00F0D8FD009C0D4622462B46A7
:1059F0004046494600F086FF604B804689460022BB
:105A00002046294600F0C6FD52465B4600F0C2FD26
:105A100002460B4651EC190B00F0BCFDDDE90423F6
:105A200000F070FF49EC188B2246804689462B46D1
:105A300051EC1A0B00F066FF02460B464046494601
:105A400000F0AAFD82468B4652465B4651EC180B8D
:105A500000F0A2FD009C3EA3D3E9002320460D46A2
:105A600000F050FF53EC182B80468946204629460B
:105A700000F090FD02460B465046594600F08AFD64
:105A800035A3D3E9002300F03DFF49EC198B34A383
:105A9000D3E90023804689462046294600F032FF9C
:105AA00002460B464046494600F076FD53EC1C2B5F
:105AB00000F072FD824607988B4600F0B9FE524610
:105AC000804689465B4651EC190B00F065FD53ECAE
:105AD0001B2B00F061FD42464B4600F05DFD009C33
:105AE00042464B4620460D4600F054FD53EC1B2B1E
:105AF00000F050FD53EC192B00F04CFD02460B4614
:105B00005046594600F046FD82468B4638E000BFBD
:105B10000000000000000000000000000000F03F56
:105B2000EF4E454A287ECA3F65DBC9934A86CD3F82
:105B300001411DA96074D13F4D268F515555D53F68
:105B4000FFAB6FDBB66DDB3F033333333333E33F00
:105B5000000000E009C7EE3FFD033ADC09C7EE3F55
:105B6000F5015B14E02F3EBE0000F07F00004043D3
:105B70008E98030079B60B000000F03F000008404B
:105B8000039B069A013B134340F078819FEDC47B51
:105B9000B0EE479AF0EE679A0023CDE900670093D4
:105BA000DDE900893046424639464B4600F0F2FCBA
:105BB00022462B4600F0A6FE32463B4606460F46DE
:105BC0005046594600F09EFE02460B463046394686
:105BD00000F0E2FC424682468B464B462046294670
:105BE00000F090FE06460F463B4650465946324668
:105BF00000F0D2FCC44B994204460D46884640F35F
:105C0000178101F13F4303F5E003034340F02A828B
:105C1000A5A3D3E900235046594600F0BDFC324607
:105C200041EC180B3B462046294600F0B3FC0246E7
:105C30000B4651EC180B01F0F5F8002840F01282E9
:105C4000C8F30A534FF48012A3F2FE3342FA03F36F
:105C50004344AE49C3F30A52A2F2FF3241FA02FCB6
:105C6000C3F3130523EA0C01C2F1140445F48015B3
:105C7000B8F1000F0B4645FA04F103914FF0000014
:105C8000B8BF49420246B8BF03913046394600F0DA
:105C900081FC06460F463B4650465946324600F0C8
:105CA0007BFC039B1B0500930D46002480A3D3E9D6
:105CB00000232046294600F025FE324680468946CC
:105CC0003B462046294600F065FC02460B465046FE
:105CD000594600F05FFC78A3D3E9002300F012FEE0
:105CE00077A3D3E9002306460F462046294600F055
:105CF00009FE02460B463046394600F04DFC06468A
:105D00000F4632463B464046494600F045FC424677
:105D10004B4604460D4600F03DFC02460B4630461D
:105D2000394600F037FC224682468B462B462046F9
:105D3000294600F0E7FD64A3D3E9002306460F4699
:105D400000F0E0FD62A3D3E9002300F023FC32461B
:105D50003B4600F0D7FD60A3D3E9002300F01CFC14
:105D600032463B4600F0CEFD5DA3D3E9002300F0B0
:105D700011FC32463B4600F0C5FD5BA3D3E900238E
:105D800000F00AFC32463B4600F0BCFD02460B46E2
:105D90002046294600F0FEFB06460F4632463B46AB
:105DA0002046294600F0AEFD0022804689464FF08D
:105DB00080433046394600F0EDFB02460B46404634
:105DC000494600F0C9FE524606460F465B4620464D
:105DD000294600F097FD52465B4600F0DDFB024687
:105DE0000B463046394600F0D5FB22462B4600F0E4
:105DF000D1FB02460B460020454900F0CBFB0B4689
:105E000000991944B1F5801F0246C0F2698110461D
:105E100053EC192B00F076FDCDE900011EE4BBF137
:105E2000000FFFF695AC9FED327B8DED007B15E406
:105E3000DFF8E4C021F00043634540F30B81354BAC
:105E40000B4403430AD132463B4600F0A3FB5246C3
:105E50005B4600F0DDFF00283FF4F2AE26A3D3E955
:105E6000002351EC190B00F04DFD23A3D3E90023CF
:105E700000F048FDCDE90001FFF7F0BB9FED207B6E
:105E8000B0EE479AF0EE679A86E6BBF1000FCADAE9
:105E900007F1004300960193FFF7E0BBAFF30080EA
:105EA000000000000000F0BFFE822B654715973C04
:105EB00000000000432EE63FEF39FAFE422EE63F97
:105EC000396CA80C615C20BED0A4BE726937663EF6
:105ED000F16BD2C541BDBB3E2CDE25AF6A56113FEA
:105EE00093BDBE166CC1663F3E5555555555C53FD1
:105EF000000000000000000059F3F8C21F6EA50169
:105F0000000000000000F03FFFFF8F40FFFF0F0088
:105F10000000F03F00346F3FFFCB90409845FFF604
:105F20007EAF914B98453FF70FAC8F4B0022DDE9D8
:105F3000000100F02FFB78A3D3E9002304460D46AF
:105F400000F0E0FC76A3D3E9002382468B4620468E
:105F5000294600F0D7FC854B804689460022204622
:105F6000294600F0CFFC02460B466FA1D1E90001A3
:105F700000F010FB22462B4600F0C4FC02460B4604
:105F800000207B4900F006FB22462B4604460D46C6
:105F90001046194600F0B6FC02460B46204629463C
:105FA00000F0B0FC62A3D3E9002300F0ABFC024692
:105FB0000B464046494600F0EDFA80468946504679
:105FC000594642464B4600F0E7FA002452465B46EB
:105FD00020460D4600F0DEFA02460B464046494692
:105FE00000F0D8FA82468B46CAE59FED537BB0EEAF
:105FF00047BAF0EE67BAB0EE47CAF0EE67CA9FED57
:10600000507B4FF0000954EC173B1DE40020FFF7D4
:10601000F3BB554922462B46002000F09DFDCDE9FB
:106020000001FFF71BBB22462B462046294600F005
:1060300069FCCDE90001FFF711BB002B42D1C1F192
:1060400014014AFA01F000FA01F151455AD00393C4
:10605000FFF7E0BA464A93425BDCDDE900120091AB
:10606000039122E638A3D3E9002351EC190B00F089
:1060700049FC35A3D3E9002300F044FCCDE900013D
:10608000FFF7ECBA039B012B7FF4E8AADDE90021BE
:1060900001F10043CDE90023FFF7E0BA9FED2C7B2F
:1060A000B0EE47BAF0EE67BA9FED2B7BB0EE47CA71
:1060B000F0EE67CA9FED2A7B4FF4802954EC173B22
:1060C000FFF7C2BB45EC104B039200F017F9039A9F
:1060D0008DED000B002A7FF461AB0392FFF7F5BA58
:1060E000039843EC102B00F0BFF951EC100B8FE636
:1060F00000F00100C0F102010391002B3FF48AAAD5
:10610000FFF7DABA00F00100C0F102030393FFF7D2
:1061100081BA1B1596E500BF000000604715F73FE8
:1061200044DF5DF80BAE543E555555555555D53F9A
:10613000FE822B654715F73F0000000000000000BD
:10614000000000000000F03F9C7500883CE4377EB2
:106150000000004003B8E23F06D0CF43EBFD4C3EC9
:10616000000000000000F83F0000F03F0000D03FBA
:106170000000E03F2DE9F0415F4A57EC106BBA4355
:1061800000F09880002F10EE104A3B464EDD391586
:106190005BD0C3F31303CA0743F48013A1F2FF3E9D
:1061A00003D45B0003EBD4736400E20F4FF0000CE8
:1061B00002EB43034FEA6E0E6400664616254FF469
:1061C0000012B118994202DC5B1A8E1894445B00ED
:1061D000013D03EBD4734FEA52024FEA4404F0D17D
:1061E0002F4620204FF0004209E03ED0E10F013859
:1061F0004FEA520201EB43034FEA44043ED0B3425C
:1062000002EB0501F1DD002901EB020509DBB046D7
:106210009B1BA14288BF03F1FF33641A1744464613
:10622000E4E7002DF3DB06F10108F1E727F0004277
:10623000324336D0002F4DD13946E20A1539640574
:106240001346002AF9D0D70251D400205B00DE02A9
:10625000054600F10100F9D51A4623468440C0F1F5
:106260002000C3401343491B93E7A142BED8002935
:1062700001EB0205D5DB98460023CEE7234312D17C
:1062800078084FEA6C0101F17F511CF0010F01F514
:10629000001118BF40F0004001EB0E53024643ECE2
:1062A000102BBDE8F0817B1C16BF781C0CF1010C93
:1062B0004008E6E710EE102A10EE100A3B46394679
:1062C00000F020FB32463B4600F066F941EC100B33
:1062D000BDE8F08110EE102A3046394600F05AF938
:1062E00002460B4600F038FC41EC100BD9E7234680
:1062F00020204FF0FF35B4E70000F07F51EC100B89
:1063000010EE102A21F0004343EC102B704700BF21
:1063100082B08DED000B019840F0004000F5801038
:10632000C00F02B0704700BF00207047000000009F
:106330009FED010B704700BF000000000000F87FD8
:10634000F0B553EC102BC3F30A56A6F2FF30132816
:1063500010EE105A83B019464FEAD37431DC00288E
:106360004CDB3E4E064103EA060717432ED003EAF4
:1063700056031D434FEA56060CD04FF480231328D2
:1063800021EA060643FA00F141EA06010CBF4FF08C
:1063900000450025324800EBC4042A46D4E90045F4
:1063A0000B462046294600F0F7F8CDE90001DDE96B
:1063B000000122462B4600F0EDF841EC100B03B033
:1063C000F0BD332806DDB0F5806F40D043EC102BD4
:1063D00003B0F0BDA6F213464FF0FF30F04002428A
:1063E000F4D015EA50024FEA5003D3D04FF0804268
:1063F00025EA030542FA06F63543CBE723F00040D1
:106400001043E3D0C3F3130010434542054314483F
:1064100000EBC400D0E90067590C2D0B490405F4CA
:10642000002545EA01033046394600F0B5F8CDE9CC
:1064300000013B46DDE90001324600F0ABF821F0F7
:10644000004343EAC47141EC100B03B0F0BD10EE01
:10645000100A00F0A1F841EC100BB9E7FFFF0F00A4
:1064600060740D000000000038B553EC102BC3F32E
:106470000A511C46054681BB10EE101A23F0004459
:10648000214329D0194600223D4B3E4C10EE100A04
:1064900000F038FAA54202460B4616DB0C46C1F363
:1064A0000A513639294440F2FE70814221DC00292C
:1064B00047DC11F1350F34DA4CF250318D4218DCE3
:1064C000002B27A1D1E9000144DB25A3D3E9002358
:1064D00000F018FA41EC100B38BD40F2FF70814219
:1064E000E0D110EE100A194600F056F841EC100BFE
:1064F00038BD002B1CA1D1E9000107DB1AA3D3E9A9
:10650000002300F0FFF941EC100B38BD18A1D1E9D0
:10651000000115A3D3E9002300F0F4F941EC100BBE
:10652000F3E724F0FF4424F4E004363144EA015355
:10653000104619460022144B00F0E4F941EC100B10
:1065400038BD24F0FF4424F4E00444EA015343EC52
:10655000102B38BD08A1D1E90001B6E7AFF30080E8
:1065600059F3F8C21F6EA5019C7500883CE4377E84
:106570009C7500883CE437FE59F3F8C21F6EA58174
:1065800000005043B03CFFFF0000903C81F0004110
:1065900002E000BF83F0004330B54FEA41044FEA08
:1065A000430594EA050F08BF90EA020F1FBF54EAA3
:1065B000000C55EA020C7FEA645C7FEA655C00F03F
:1065C000E2804FEA5454D4EB5555B8BF6D420CDD10
:1065D0002C4480EA020281EA030382EA000083EA93
:1065E000010180EA020281EA0303362D88BF30BD33
:1065F00011F0004F4FEA01314FF4801C4CEA113189
:1066000002D0404261EB410113F0004F4FEA0333E7
:106610004CEA133302D0524263EB430394EA050F72
:1066200000F0A780A4F10104D5F1200E0DDB02FAE1
:106630000EFC22FA05F2801841F1000103FA0EF275
:10664000801843FA05F359410EE0A5F120050EF13B
:10665000200E012A03FA0EFC28BF4CF0020C43FA6C
:1066600005F3C01851EBE37101F0004507D54FF079
:10667000000EDCF1000C7EEB00006EEB0101B1F5C9
:10668000801F1BD3B1F5001F0CD349085FEA30000F
:106690004FEA3C0C04F101044FEA445212F5800F1A
:1066A00080F09A80BCF1004F08BF5FEA500C50F1B7
:1066B000000041EB045141EA050130BD5FEA4C0C9A
:1066C000404141EB0101013C28BFB1F5801FE9D2F7
:1066D00091F0000F04BF01460020B1FA81F308BF1A
:1066E0002033A3F10B03B3F120020CDA0C3208DDE6
:1066F00002F1140CC2F10C0201FA0CF021FA02F1C1
:106700000CE002F11402D8BFC2F1200C01FA02F130
:1067100020FA0CFCDCBF41EA0C019040E41AA2BF55
:1067200001EB0451294330BD6FEA04041F3C1CDA1D
:106730000C340EDC04F11404C4F1200220FA04F03D
:1067400001FA02F340EA030021FA04F345EA0301E7
:1067500030BDC4F10C04C4F1200220FA02F001FAA9
:1067600004F340EA0300294630BD21FA04F029462B
:1067700030BD94F0000F83F4801306BF81F48011C4
:106780000134013D4EE77FEA645C18BF7FEA655C37
:1067900029D094EA050F08BF90EA020F05D054EA09
:1067A000000C04BF1946104630BD91EA030F1EBF0E
:1067B0000021002030BD5FEA545C05D14000494112
:1067C00028BF41F0004130BD14F580043CBF01F505
:1067D000801130BD01F0004545F0FE4141F47001EB
:1067E0004FF0000030BD7FEA645C1ABF19461046C6
:1067F0007FEA655C1CBF0B46024650EA013406BFC7
:1068000052EA033591EA030F41F4002130BD00BF85
:1068100090F0000F04BF0021704730B54FF4806442
:1068200004F132044FF000054FF0000150E700BFC3
:1068300090F0000F04BF0021704730B54FF4806422
:1068400004F1320410F0004548BF40424FF000010F
:106850003EE700BF42004FEAE2014FEA31014FEA52
:1068600002701FBF12F07F4393F07F4F81F06051A1
:10687000704732F07F4208BF704793F07F4F04BFEC
:1068800041F40021704730B54FF4607401F00045C9
:1068900021F000411CE700BF50EA010208BF704729
:1068A00030B54FF000050AE050EA010208BF70471A
:1068B00030B511F0004502D5404261EB41014FF483
:1068C000806404F132045FEA915C3FF4D8AE4FF08B
:1068D00003025FEADC0C18BF03325FEADC0C18BF6E
:1068E000033202EBDC02C2F1200300FA03FC20FABF
:1068F00002F001FA03FE40EA0E0021FA02F114440C
:10690000BDE600BF70B54FF0FF0C4CF4E06C1CEA24
:1069100011541DBF1CEA135594EA0C0F95EA0C0F95
:1069200000F0DEF82C4481EA030621EA4C5123EA08
:106930004C5350EA013518BF52EA033541F4801137
:1069400043F4801338D0A0FB02CE4FF00005E1FBEA
:1069500002E506F00042E0FB03E54FF00006E1FB34
:1069600003569CF0000F18BF4EF0010EA4F1FF0477
:10697000B6F5007F64F5407404D25FEA4E0E6D41B7
:1069800046EB060642EAC62141EA55514FEAC520C8
:1069900040EA5E504FEACE2EB4F1FD0C88BFBCF544
:1069A000E06F1ED8BEF1004F08BF5FEA500E50F1F5
:1069B000000041EB045170BD06F0004646EA0101BB
:1069C00040EA020081EA0301B4EB5C04C2BFD4EBED
:1069D0000C0541EA045170BD41F480114FF0000EE6
:1069E000013C00F3AB8014F1360FDEBF002001F054
:1069F000004170BDC4F10004203C35DA0C341BDCCE
:106A000004F11404C4F1200500FA05F320FA04F09F
:106A100001FA05F240EA020001F0004221F00041D3
:106A200010EBD37021FA04F642EB06015EEA430E46
:106A300008BF20EAD37070BDC4F10C04C4F1200576
:106A400000FA04F320FA05F001FA04F240EA020029
:106A500001F0004110EBD37041F100015EEA430EFA
:106A600008BF20EAD37070BDC4F1200500FA05F21A
:106A70004EEA020E20FA04F301FA05F243EA020399
:106A800021FA04F001F0004121FA04F220EA0200A8
:106A900000EBD3705EEA430E08BF20EAD37070BDEE
:106AA00094F0000F0FD101F00046400041EB0101CE
:106AB00011F4801F08BF013CF7D041EA060195F0B0
:106AC000000F18BF704703F00046520043EB03036A
:106AD00013F4801F08BF013DF7D043EA0603704757
:106AE00094EA0C0F0CEA135518BF95EA0C0F0CD062
:106AF00050EA410618BF52EA4306D1D181EA0301A8
:106B000001F000414FF0000070BD50EA410606BFA1
:106B10001046194652EA430619D094EA0C0F02D1E6
:106B200050EA013613D195EA0C0F05D152EA03362B
:106B30001CBF104619460AD181EA030101F0004149
:106B400041F0FE4141F470014FF0000070BD41F092
:106B5000FE4141F4780170BD70B54FF0FF0C4CF46C
:106B6000E06C1CEA11541DBF1CEA135594EA0C0F8B
:106B700095EA0C0F00F0A7F8A4EB050481EA030ED8
:106B800052EA03354FEA013100F088804FEA0333BF
:106B90004FF0805545EA131343EA12634FEA02228D
:106BA00045EA111545EA10654FEA00260EF000414E
:106BB0009D4208BF964244F1FD0404F5407402D2A0
:106BC0005B084FEA3202B61A65EB03055B084FEA31
:106BD00032024FF480104FF4002CB6EB020E75EB2E
:106BE000030E22BFB61A754640EA0C005B084FEA56
:106BF0003202B6EB020E75EB030E22BFB61A7546D3
:106C000040EA5C005B084FEA3202B6EB020E75EB1D
:106C1000030E22BFB61A754640EA9C005B084FEA95
:106C20003202B6EB020E75EB030E22BFB61A7546A2
:106C300040EADC0055EA060E18D04FEA051545EA91
:106C400016754FEA06164FEAC30343EA52734FEA3A
:106C5000C2025FEA1C1CC0D111F4801F0BD141EAB3
:106C600000014FF000004FF0004CB6E711F4801F18
:106C700004BF01430020B4F1FD0C88BFBCF5E06FF8
:106C80003FF6AFAEB5EB030C04BFB6EB020C5FEA08
:106C9000500C50F1000041EB045170BD0EF0004E5D
:106CA0004EEA113114EB5C04C2BFD4EB0C0541EA8F
:106CB000045170BD41F480114FF0000E013C90E68C
:106CC00045EA060E8DE60CEA135594EA0C0F08BF50
:106CD00095EA0C0F3FF43BAF94EA0C0F0AD150EA4F
:106CE00001347FF434AF95EA0C0F7FF425AF1046E2
:106CF00019462CE795EA0C0F06D152EA03353FF40A
:106D0000FDAE1046194622E750EA410618BF52EA86
:106D100043067FF4C5AE50EA41047FF40DAF52EA5A
:106D200043057FF4EBAE12E74FF0FF3C06E000BFF7
:106D30004FF0010C02E000BF4FF0010C4DF804CD04
:106D40004FEA410C7FEA6C5C4FEA430C18BF7FEAC4
:106D50006C5C1BD001B050EA410C0CBF52EA430CF2
:106D600091EA030F02BF90EA020F0020704710F172
:106D7000000F91EA030F58BF994208BF90422CBF01
:106D8000D8176FEAE37040F0010070474FEA410CFA
:106D90007FEA6C5C02D150EA013C07D14FEA430C18
:106DA0007FEA6C5CD6D152EA033CD3D05DF8040B89
:106DB000704700BF8446104662468C4619466346BB
:106DC00000E000BF01B5FFF7B7FF002848BF10F192
:106DD000000F01BD4DF808EDFFF7F4FF0CBF0120D7
:106DE00000205DF808FB00BF4DF808EDFFF7EAFF53
:106DF00034BF012000205DF808FB00BF4DF808ED0E
:106E0000FFF7E0FF94BF012000205DF808FB00BF02
:106E10004DF808EDFFF7CEFF94BF012000205DF88C
:106E200008FB00BF4DF808EDFFF7C4FF34BF012099
:106E300000205DF808FB00BF4FEA410C7FEA6C5C64
:106E400002D150EA013C0AD14FEA430C7FEA6C5C64
:106E500002D152EA033C02D14FF0000070474FF0DC
:106E6000010070474FEA4102B2F1E04324BFB3F59D
:106E7000001CDCF1FE5C0DD901F0004C4FEAC002B1
:106E80004CEA5070B2F1004F40EB830008BF20F095
:106E90000100704711F0804F21D113F13872BCBF4F
:106EA00001F00040704741F480114FEA5252C2F1A4
:106EB0001802C2F1200C10FA0CF320FA02F018BFED
:106EC00040F001004FEAC1234FEAD32303FA0CFC40
:106ED00040EA0C0023FA02F34FEA4303CCE77FEACF
:106EE000625307D150EA01331EBF4FF0FE4040F419
:106EF0004000704701F0004040F0FE4040F40000C8
:106F0000704700BF10B5054C13462CB10A46014628
:106F10000220AFF3008010BD2046FCE70000000017
:106F20000A44914200F1FF3300D1704710B511F8C7
:106F3000014B03F8014F9142F9D110BD02440346C1
:106F4000934200D1704703F8011BF9E738B50D4BA8
:106F50001D68AB6B04467BB91820FDF717FC0A4A85
:106F60000A4BA863C0E90023094B83600B2383818C
:106F700001220023C0E90423AB6B00221C615A618B
:106F800038BD00BF98E503200E33CDAB34126DE65B
:106F9000ECDE0500034613F8012B002AFBD1181A7A
:106FA0000138704721400D005D400D0085400D0007
:106FB00089400D00000000005356004C697665774B
:106FC000697265004D6F6E69746F72004C504F3A74
:106FD00020256400526174696F3A202566252500DA
:106FE000636F6E63656E74726174696F6E3A2025AB
:106FF00066207063732F4C0000000000000000004A
:1070000000005F0000000000000007000700000013
:1070100000147F147F14000000242A7F2A1200002D
:107020000023130864620000003649552250000016
:107030000000050300000000001C224100000000C9
:107040000041221C0000000000082A1C2A08000041
:107050000008083E0808000000A0600000000000D2
:107060000008080808080000006060000000000038
:107070000020100804020000003E5149453E000077
:107080000000427F40000000006251494946000074
:107090000022414949360000001814127F100000F8
:1070A0000027454545390000003C4A494930000069
:1070B0000001710905030000003649494936000006
:1070C00000064949291E0000000036360000000075
:1070D0000000AC6C00000000000814224100000019
:1070E00000141414141400000041221408000000BD
:1070F000000201510906000000324979413E0000BA
:10710000007E0909097E0000007F494949360000D8
:10711000003E414141220000007F4141221C00000D
:10712000007F494949410000007F09090901000029
:10713000003E414151720000007F0808087F0000B6
:1071400000417F4100000000002040413F0100005D
:10715000007F081422410000007F404040400000B2
:10716000007F020C027F0000007F0408107F0000F7
:10717000003E4141413E0000007F09090906000030
:10718000003E4151215E0000007F091929460000A0
:1071900000264949493200000001017F0101000039
:1071A000003F4040403F0000001F2040201F0000E3
:1071B000003F4038403F00000063140814630000A3
:1071C00000030478040300000061514945430000B6
:1071D000007F414100000000000204081020000070
:1071E0000041417F00000000000402010204000091
:1071F0000080808080800000000102040000000008
:107200000020545454780000007F48444438000063
:10721000003844442800000000384444487F0000FF
:10722000003854545418000000087E090200000081
:107230000018A4A4A47C0000007F080404780000C7
:1072400000007D00000000000080847D0000000040
:10725000007F10284400000000417F400000000033
:10726000007C041804780000007C08047C00000006
:10727000003844443800000000FC242418000000BA
:1072800000182424FC00000000007C08040000001A
:10729000004854542400000000047F440000000013
:1072A000003C40407C000000001C2040201C0000EE
:1072B000003C4030403C00000044281028440000BE
:1072C000001CA0A07C000000004464544C4400005A
:1072D000000836410000000000007F0000000000B0
:1072E0000041360800000000000201010201000018
:1072F0000002050502000000000000000000000080
:107300007B480D0071480D0067480D001D480D00B9
:107310005B480D004F480D0043480D003B480D00F1
:1073200031480D0027480D00454B0D0000000000BE
:107330000000000025490D001B490D0011490D00FA
:1073400007490D00FB480D00EF480D00E3480D0014
:10735000DB480D00D1480D00C7480D00454B0D001E
:10736000000000000000000045490D008F490D009D
:1073700067490D0047490D006F490D0077490D0021
:107380007F490D0087490D0000000000000000004B
:10739000F9490D00E9490D00EB490D0061707000DD
:1073A0000000000000000000DD4A0D00E74A0D006B
:1073B000F14A0D00FB4A0D00054B0D00114B0D006D
:1073C0001D4B0D00294B0D00314B0D003B4B0D00AB
:1073D000454B0D0025592D256D2D25645425483A22
:1073E000254D3A2553257A0061736374696D6500F4
:1073F0000000000000000000E54D0D00514E0D00A2
:10740000294E0D002D4C0D00F94D0D00154E0D00AF
:10741000074E0D00234E0D00E74D0D00EB4D0D0006
:107420000000000000000000E54E0D004D4F0D0073
:10743000234F0D002D4C0D00154F0D00E74E0D0094
:10744000F74E0D00474F0D00074F0D00E14E0D00A8
:1074500000000000706F77000000000000000000D6
:10746000000000000000304300000000000030C3B6
:10747000F5470D0085480D0031490D00CD4A0D003E
:10748000194C0D00454D0D00954D0D00D14D0D00D1
:0474900000000000F8
:10749400E8730D00010000009CE5032000000000DB
:1074A40000000000000000000000000000000000D8
:1074B40000000000000000000000000000000000C8
:1074C40000000000000000000000000000000000B8
:1074D40000000000000000000000000000000000A8
:1074E4000000000000000000000000000000000098
:0C74F4000000000000000000000000008C
:10750000FFFFFFFF00000102030405060708090A48
:107510000B0C0D0E0F101112131415161718191A43
:087520001B1C1D1E1F2028008A
:04752800785634124B
:04000003D0004020C9
:00000001FF
